{
  "_format": "hh-sol-artifact-1",
  "contractName": "MyNFT",
  "sourceName": "contracts/MyNFT.sol",
  "abi": [
    {
      "inputs": [
        {
          "internalType": "string",
          "name": "_name",
          "type": "string"
        },
        {
          "internalType": "string",
          "name": "_symbol",
          "type": "string"
        },
        {
          "internalType": "string",
          "name": "_baseUri",
          "type": "string"
        }
      ],
      "stateMutability": "nonpayable",
      "type": "constructor"
    },
    {
      "anonymous": false,
      "inputs": [
        {
          "indexed": true,
          "internalType": "address",
          "name": "owner",
          "type": "address"
        },
        {
          "indexed": true,
          "internalType": "address",
          "name": "approved",
          "type": "address"
        },
        {
          "indexed": true,
          "internalType": "uint256",
          "name": "tokenId",
          "type": "uint256"
        }
      ],
      "name": "Approval",
      "type": "event"
    },
    {
      "anonymous": false,
      "inputs": [
        {
          "indexed": true,
          "internalType": "address",
          "name": "owner",
          "type": "address"
        },
        {
          "indexed": true,
          "internalType": "address",
          "name": "operator",
          "type": "address"
        },
        {
          "indexed": false,
          "internalType": "bool",
          "name": "approved",
          "type": "bool"
        }
      ],
      "name": "ApprovalForAll",
      "type": "event"
    },
    {
      "anonymous": false,
      "inputs": [
        {
          "indexed": true,
          "internalType": "address",
          "name": "previousOwner",
          "type": "address"
        },
        {
          "indexed": true,
          "internalType": "address",
          "name": "newOwner",
          "type": "address"
        }
      ],
      "name": "OwnershipTransferred",
      "type": "event"
    },
    {
      "anonymous": false,
      "inputs": [
        {
          "indexed": true,
          "internalType": "address",
          "name": "from",
          "type": "address"
        },
        {
          "indexed": true,
          "internalType": "address",
          "name": "to",
          "type": "address"
        },
        {
          "indexed": true,
          "internalType": "uint256",
          "name": "tokenId",
          "type": "uint256"
        }
      ],
      "name": "Transfer",
      "type": "event"
    },
    {
      "inputs": [
        {
          "internalType": "address",
          "name": "to",
          "type": "address"
        },
        {
          "internalType": "uint256",
          "name": "tokenId",
          "type": "uint256"
        }
      ],
      "name": "approve",
      "outputs": [],
      "stateMutability": "nonpayable",
      "type": "function"
    },
    {
      "inputs": [
        {
          "internalType": "address",
          "name": "owner",
          "type": "address"
        }
      ],
      "name": "balanceOf",
      "outputs": [
        {
          "internalType": "uint256",
          "name": "",
          "type": "uint256"
        }
      ],
      "stateMutability": "view",
      "type": "function"
    },
    {
      "inputs": [
        {
          "internalType": "uint256",
          "name": "tokenId",
          "type": "uint256"
        }
      ],
      "name": "getApproved",
      "outputs": [
        {
          "internalType": "address",
          "name": "",
          "type": "address"
        }
      ],
      "stateMutability": "view",
      "type": "function"
    },
    {
      "inputs": [
        {
          "internalType": "address",
          "name": "owner",
          "type": "address"
        },
        {
          "internalType": "address",
          "name": "operator",
          "type": "address"
        }
      ],
      "name": "isApprovedForAll",
      "outputs": [
        {
          "internalType": "bool",
          "name": "",
          "type": "bool"
        }
      ],
      "stateMutability": "view",
      "type": "function"
    },
    {
      "inputs": [
        {
          "internalType": "address",
          "name": "_to",
          "type": "address"
        },
        {
          "internalType": "string",
          "name": "_tokenURL",
          "type": "string"
        }
      ],
      "name": "mintTo",
      "outputs": [],
      "stateMutability": "nonpayable",
      "type": "function"
    },
    {
      "inputs": [],
      "name": "name",
      "outputs": [
        {
          "internalType": "string",
          "name": "",
          "type": "string"
        }
      ],
      "stateMutability": "view",
      "type": "function"
    },
    {
      "inputs": [],
      "name": "owner",
      "outputs": [
        {
          "internalType": "address",
          "name": "",
          "type": "address"
        }
      ],
      "stateMutability": "view",
      "type": "function"
    },
    {
      "inputs": [
        {
          "internalType": "uint256",
          "name": "tokenId",
          "type": "uint256"
        }
      ],
      "name": "ownerOf",
      "outputs": [
        {
          "internalType": "address",
          "name": "",
          "type": "address"
        }
      ],
      "stateMutability": "view",
      "type": "function"
    },
    {
      "inputs": [],
      "name": "renounceOwnership",
      "outputs": [],
      "stateMutability": "nonpayable",
      "type": "function"
    },
    {
      "inputs": [
        {
          "internalType": "address",
          "name": "from",
          "type": "address"
        },
        {
          "internalType": "address",
          "name": "to",
          "type": "address"
        },
        {
          "internalType": "uint256",
          "name": "tokenId",
          "type": "uint256"
        }
      ],
      "name": "safeTransferFrom",
      "outputs": [],
      "stateMutability": "nonpayable",
      "type": "function"
    },
    {
      "inputs": [
        {
          "internalType": "address",
          "name": "from",
          "type": "address"
        },
        {
          "internalType": "address",
          "name": "to",
          "type": "address"
        },
        {
          "internalType": "uint256",
          "name": "tokenId",
          "type": "uint256"
        },
        {
          "internalType": "bytes",
          "name": "_data",
          "type": "bytes"
        }
      ],
      "name": "safeTransferFrom",
      "outputs": [],
      "stateMutability": "nonpayable",
      "type": "function"
    },
    {
      "inputs": [
        {
          "internalType": "address",
          "name": "operator",
          "type": "address"
        },
        {
          "internalType": "bool",
          "name": "approved",
          "type": "bool"
        }
      ],
      "name": "setApprovalForAll",
      "outputs": [],
      "stateMutability": "nonpayable",
      "type": "function"
    },
    {
      "inputs": [
        {
          "internalType": "bytes4",
          "name": "interfaceId",
          "type": "bytes4"
        }
      ],
      "name": "supportsInterface",
      "outputs": [
        {
          "internalType": "bool",
          "name": "",
          "type": "bool"
        }
      ],
      "stateMutability": "view",
      "type": "function"
    },
    {
      "inputs": [],
      "name": "symbol",
      "outputs": [
        {
          "internalType": "string",
          "name": "",
          "type": "string"
        }
      ],
      "stateMutability": "view",
      "type": "function"
    },
    {
      "inputs": [
        {
          "internalType": "uint256",
          "name": "tokenId",
          "type": "uint256"
        }
      ],
      "name": "tokenURI",
      "outputs": [
        {
          "internalType": "string",
          "name": "",
          "type": "string"
        }
      ],
      "stateMutability": "view",
      "type": "function"
    },
    {
      "inputs": [],
      "name": "totalSupply",
      "outputs": [
        {
          "internalType": "uint256",
          "name": "",
          "type": "uint256"
        }
      ],
      "stateMutability": "view",
      "type": "function"
    },
    {
      "inputs": [
        {
          "internalType": "address",
          "name": "from",
          "type": "address"
        },
        {
          "internalType": "address",
          "name": "to",
          "type": "address"
        },
        {
          "internalType": "uint256",
          "name": "tokenId",
          "type": "uint256"
        }
      ],
      "name": "transferFrom",
      "outputs": [],
      "stateMutability": "nonpayable",
      "type": "function"
    },
    {
      "inputs": [
        {
          "internalType": "address",
          "name": "newOwner",
          "type": "address"
        }
      ],
      "name": "transferOwnership",
      "outputs": [],
      "stateMutability": "nonpayable",
      "type": "function"
    }
  ],
  "bytecode": "0x60806040523480156200001157600080fd5b50604051620036ef380380620036ef83398181016040528101906200003791906200029f565b82828160009080519060200190620000519291906200017d565b5080600190805190602001906200006a9291906200017d565b5050506200008d62000081620000af60201b60201c565b620000b760201b60201c565b8060099080519060200190620000a59291906200017d565b50505050620004b0565b600033905090565b6000600760009054906101000a900473ffffffffffffffffffffffffffffffffffffffff16905081600760006101000a81548173ffffffffffffffffffffffffffffffffffffffff021916908373ffffffffffffffffffffffffffffffffffffffff1602179055508173ffffffffffffffffffffffffffffffffffffffff168173ffffffffffffffffffffffffffffffffffffffff167f8be0079c531659141344cd1fd0a4f28419497f9722a3daafe3b4186f6b6457e060405160405180910390a35050565b8280546200018b90620003d5565b90600052602060002090601f016020900481019282620001af5760008555620001fb565b82601f10620001ca57805160ff1916838001178555620001fb565b82800160010185558215620001fb579182015b82811115620001fa578251825591602001919060010190620001dd565b5b5090506200020a91906200020e565b5090565b5b80821115620002295760008160009055506001016200020f565b5090565b6000620002446200023e8462000369565b62000340565b9050828152602081018484840111156200025d57600080fd5b6200026a8482856200039f565b509392505050565b600082601f8301126200028457600080fd5b8151620002968482602086016200022d565b91505092915050565b600080600060608486031215620002b557600080fd5b600084015167ffffffffffffffff811115620002d057600080fd5b620002de8682870162000272565b935050602084015167ffffffffffffffff811115620002fc57600080fd5b6200030a8682870162000272565b925050604084015167ffffffffffffffff8111156200032857600080fd5b620003368682870162000272565b9150509250925092565b60006200034c6200035f565b90506200035a82826200040b565b919050565b6000604051905090565b600067ffffffffffffffff82111562000387576200038662000470565b5b62000392826200049f565b9050602081019050919050565b60005b83811015620003bf578082015181840152602081019050620003a2565b83811115620003cf576000848401525b50505050565b60006002820490506001821680620003ee57607f821691505b6020821081141562000405576200040462000441565b5b50919050565b62000416826200049f565b810181811067ffffffffffffffff8211171562000438576200043762000470565b5b80604052505050565b7f4e487b7100000000000000000000000000000000000000000000000000000000600052602260045260246000fd5b7f4e487b7100000000000000000000000000000000000000000000000000000000600052604160045260246000fd5b6000601f19601f8301169050919050565b61322f80620004c06000396000f3fe608060405234801561001057600080fd5b50600436106101155760003560e01c806370a08231116100a2578063a22cb46511610071578063a22cb465146102cc578063b88d4fde146102e8578063c87b56dd14610304578063e985e9c514610334578063f2fde38b1461036457610115565b806370a0823114610256578063715018a6146102865780638da5cb5b1461029057806395d89b41146102ae57610115565b8063095ea7b3116100e9578063095ea7b3146101b457806318160ddd146101d057806323b872dd146101ee57806342842e0e1461020a5780636352211e1461022657610115565b806275a3171461011a57806301ffc9a71461013657806306fdde0314610166578063081812fc14610184575b600080fd5b610134600480360381019061012f919061211e565b610380565b005b610150600480360381019061014b91906121ae565b61046c565b60405161015d91906125fa565b60405180910390f35b61016e61054e565b60405161017b9190612615565b60405180910390f35b61019e60048036038101906101999190612200565b6105e0565b6040516101ab9190612593565b60405180910390f35b6101ce60048036038101906101c99190612172565b610665565b005b6101d861077d565b6040516101e591906128a7565b60405180910390f35b61020860048036038101906102039190612018565b61078e565b005b610224600480360381019061021f9190612018565b6107ee565b005b610240600480360381019061023b9190612200565b61080e565b60405161024d9190612593565b60405180910390f35b610270600480360381019061026b9190611fb3565b6108c0565b60405161027d91906128a7565b60405180910390f35b61028e610978565b005b610298610a00565b6040516102a59190612593565b60405180910390f35b6102b6610a2a565b6040516102c39190612615565b60405180910390f35b6102e660048036038101906102e191906120e2565b610abc565b005b61030260048036038101906102fd9190612067565b610ad2565b005b61031e60048036038101906103199190612200565b610b34565b60405161032b9190612615565b60405180910390f35b61034e60048036038101906103499190611fdc565b610c86565b60405161035b91906125fa565b60405180910390f35b61037e60048036038101906103799190611fb3565b610d1a565b005b610388610e12565b73ffffffffffffffffffffffffffffffffffffffff166103a6610a00565b73ffffffffffffffffffffffffffffffffffffffff16146103fc576040517f08c379a00000000000000000000000000000000000000000000000000000000081526004016103f390612827565b60405180910390fd5b6104066008610e1a565b60006104126008610e30565b905061041e8382610e3e565b6104288183610e5c565b6104676040518060400160405280600d81526020017f4d696e7465642061742069643a0000000000000000000000000000000000000081525082610ed0565b505050565b60007f80ac58cd000000000000000000000000000000000000000000000000000000007bffffffffffffffffffffffffffffffffffffffffffffffffffffffff1916827bffffffffffffffffffffffffffffffffffffffffffffffffffffffff1916148061053757507f5b5e139f000000000000000000000000000000000000000000000000000000007bffffffffffffffffffffffffffffffffffffffffffffffffffffffff1916827bffffffffffffffffffffffffffffffffffffffffffffffffffffffff1916145b80610547575061054682610f6c565b5b9050919050565b60606000805461055d90612afd565b80601f016020809104026020016040519081016040528092919081815260200182805461058990612afd565b80156105d65780601f106105ab576101008083540402835291602001916105d6565b820191906000526020600020905b8154815290600101906020018083116105b957829003601f168201915b5050505050905090565b60006105eb82610fd6565b61062a576040517f08c379a000000000000000000000000000000000000000000000000000000000815260040161062190612807565b60405180910390fd5b6004600083815260200190815260200160002060009054906101000a900473ffffffffffffffffffffffffffffffffffffffff169050919050565b60006106708261080e565b90508073ffffffffffffffffffffffffffffffffffffffff168373ffffffffffffffffffffffffffffffffffffffff1614156106e1576040517f08c379a00000000000000000000000000000000000000000000000000000000081526004016106d890612867565b60405180910390fd5b8073ffffffffffffffffffffffffffffffffffffffff16610700610e12565b73ffffffffffffffffffffffffffffffffffffffff16148061072f575061072e81610729610e12565b610c86565b5b61076e576040517f08c379a000000000000000000000000000000000000000000000000000000000815260040161076590612747565b60405180910390fd5b6107788383611042565b505050565b60006107896008610e30565b905090565b61079f610799610e12565b826110fb565b6107de576040517f08c379a00000000000000000000000000000000000000000000000000000000081526004016107d590612887565b60405180910390fd5b6107e98383836111d9565b505050565b61080983838360405180602001604052806000815250610ad2565b505050565b6000806002600084815260200190815260200160002060009054906101000a900473ffffffffffffffffffffffffffffffffffffffff169050600073ffffffffffffffffffffffffffffffffffffffff168173ffffffffffffffffffffffffffffffffffffffff1614156108b7576040517f08c379a00000000000000000000000000000000000000000000000000000000081526004016108ae90612787565b60405180910390fd5b80915050919050565b60008073ffffffffffffffffffffffffffffffffffffffff168273ffffffffffffffffffffffffffffffffffffffff161415610931576040517f08c379a000000000000000000000000000000000000000000000000000000000815260040161092890612767565b60405180910390fd5b600360008373ffffffffffffffffffffffffffffffffffffffff1673ffffffffffffffffffffffffffffffffffffffff168152602001908152602001600020549050919050565b610980610e12565b73ffffffffffffffffffffffffffffffffffffffff1661099e610a00565b73ffffffffffffffffffffffffffffffffffffffff16146109f4576040517f08c379a00000000000000000000000000000000000000000000000000000000081526004016109eb90612827565b60405180910390fd5b6109fe6000611440565b565b6000600760009054906101000a900473ffffffffffffffffffffffffffffffffffffffff16905090565b606060018054610a3990612afd565b80601f0160208091040260200160405190810160405280929190818152602001828054610a6590612afd565b8015610ab25780601f10610a8757610100808354040283529160200191610ab2565b820191906000526020600020905b815481529060010190602001808311610a9557829003601f168201915b5050505050905090565b610ace610ac7610e12565b8383611506565b5050565b610ae3610add610e12565b836110fb565b610b22576040517f08c379a0000000000000000000000000000000000000000000000000000000008152600401610b1990612887565b60405180910390fd5b610b2e84848484611673565b50505050565b6060610b3f82610fd6565b610b7e576040517f08c379a0000000000000000000000000000000000000000000000000000000008152600401610b75906127e7565b60405180910390fd5b6000600660008481526020019081526020016000208054610b9e90612afd565b80601f0160208091040260200160405190810160405280929190818152602001828054610bca90612afd565b8015610c175780601f10610bec57610100808354040283529160200191610c17565b820191906000526020600020905b815481529060010190602001808311610bfa57829003601f168201915b505050505090506000610c286116cf565b9050600081511415610c3e578192505050610c81565b600082511115610c73578082604051602001610c5b92919061256f565b60405160208183030381529060405292505050610c81565b610c7c84611761565b925050505b919050565b6000600560008473ffffffffffffffffffffffffffffffffffffffff1673ffffffffffffffffffffffffffffffffffffffff16815260200190815260200160002060008373ffffffffffffffffffffffffffffffffffffffff1673ffffffffffffffffffffffffffffffffffffffff16815260200190815260200160002060009054906101000a900460ff16905092915050565b610d22610e12565b73ffffffffffffffffffffffffffffffffffffffff16610d40610a00565b73ffffffffffffffffffffffffffffffffffffffff1614610d96576040517f08c379a0000000000000000000000000000000000000000000000000000000008152600401610d8d90612827565b60405180910390fd5b600073ffffffffffffffffffffffffffffffffffffffff168173ffffffffffffffffffffffffffffffffffffffff161415610e06576040517f08c379a0000000000000000000000000000000000000000000000000000000008152600401610dfd90612687565b60405180910390fd5b610e0f81611440565b50565b600033905090565b6001816000016000828254019250508190555050565b600081600001549050919050565b610e58828260405180602001604052806000815250611808565b5050565b610e6582610fd6565b610ea4576040517f08c379a0000000000000000000000000000000000000000000000000000000008152600401610e9b906127a7565b60405180910390fd5b80600660008481526020019081526020016000209080519060200190610ecb929190611dd7565b505050565b610f688282604051602401610ee6929190612637565b6040516020818303038152906040527f9710a9d0000000000000000000000000000000000000000000000000000000007bffffffffffffffffffffffffffffffffffffffffffffffffffffffff19166020820180517bffffffffffffffffffffffffffffffffffffffffffffffffffffffff8381831617835250505050611863565b5050565b60007f01ffc9a7000000000000000000000000000000000000000000000000000000007bffffffffffffffffffffffffffffffffffffffffffffffffffffffff1916827bffffffffffffffffffffffffffffffffffffffffffffffffffffffff1916149050919050565b60008073ffffffffffffffffffffffffffffffffffffffff166002600084815260200190815260200160002060009054906101000a900473ffffffffffffffffffffffffffffffffffffffff1673ffffffffffffffffffffffffffffffffffffffff1614159050919050565b816004600083815260200190815260200160002060006101000a81548173ffffffffffffffffffffffffffffffffffffffff021916908373ffffffffffffffffffffffffffffffffffffffff160217905550808273ffffffffffffffffffffffffffffffffffffffff166110b58361080e565b73ffffffffffffffffffffffffffffffffffffffff167f8c5be1e5ebec7d5bd14f71427d1e84f3dd0314c0f7b2291e5b200ac8c7c3b92560405160405180910390a45050565b600061110682610fd6565b611145576040517f08c379a000000000000000000000000000000000000000000000000000000000815260040161113c90612727565b60405180910390fd5b60006111508361080e565b90508073ffffffffffffffffffffffffffffffffffffffff168473ffffffffffffffffffffffffffffffffffffffff16148061119257506111918185610c86565b5b806111d057508373ffffffffffffffffffffffffffffffffffffffff166111b8846105e0565b73ffffffffffffffffffffffffffffffffffffffff16145b91505092915050565b8273ffffffffffffffffffffffffffffffffffffffff166111f98261080e565b73ffffffffffffffffffffffffffffffffffffffff161461124f576040517f08c379a0000000000000000000000000000000000000000000000000000000008152600401611246906126a7565b60405180910390fd5b600073ffffffffffffffffffffffffffffffffffffffff168273ffffffffffffffffffffffffffffffffffffffff1614156112bf576040517f08c379a00000000000000000000000000000000000000000000000000000000081526004016112b6906126e7565b60405180910390fd5b6112ca83838361188c565b6112d5600082611042565b6001600360008573ffffffffffffffffffffffffffffffffffffffff1673ffffffffffffffffffffffffffffffffffffffff16815260200190815260200160002060008282546113259190612a13565b925050819055506001600360008473ffffffffffffffffffffffffffffffffffffffff1673ffffffffffffffffffffffffffffffffffffffff168152602001908152602001600020600082825461137c919061298c565b92505081905550816002600083815260200190815260200160002060006101000a81548173ffffffffffffffffffffffffffffffffffffffff021916908373ffffffffffffffffffffffffffffffffffffffff160217905550808273ffffffffffffffffffffffffffffffffffffffff168473ffffffffffffffffffffffffffffffffffffffff167fddf252ad1be2c89b69c2b068fc378daa952ba7f163c4a11628f55a4df523b3ef60405160405180910390a461143b838383611891565b505050565b6000600760009054906101000a900473ffffffffffffffffffffffffffffffffffffffff16905081600760006101000a81548173ffffffffffffffffffffffffffffffffffffffff021916908373ffffffffffffffffffffffffffffffffffffffff1602179055508173ffffffffffffffffffffffffffffffffffffffff168173ffffffffffffffffffffffffffffffffffffffff167f8be0079c531659141344cd1fd0a4f28419497f9722a3daafe3b4186f6b6457e060405160405180910390a35050565b8173ffffffffffffffffffffffffffffffffffffffff168373ffffffffffffffffffffffffffffffffffffffff161415611575576040517f08c379a000000000000000000000000000000000000000000000000000000000815260040161156c90612707565b60405180910390fd5b80600560008573ffffffffffffffffffffffffffffffffffffffff1673ffffffffffffffffffffffffffffffffffffffff16815260200190815260200160002060008473ffffffffffffffffffffffffffffffffffffffff1673ffffffffffffffffffffffffffffffffffffffff16815260200190815260200160002060006101000a81548160ff0219169083151502179055508173ffffffffffffffffffffffffffffffffffffffff168373ffffffffffffffffffffffffffffffffffffffff167f17307eab39ab6107e8899845ad3d59bd9653f200f220920489ca2b5937696c318360405161166691906125fa565b60405180910390a3505050565b61167e8484846111d9565b61168a84848484611896565b6116c9576040517f08c379a00000000000000000000000000000000000000000000000000000000081526004016116c090612667565b60405180910390fd5b50505050565b6060600980546116de90612afd565b80601f016020809104026020016040519081016040528092919081815260200182805461170a90612afd565b80156117575780601f1061172c57610100808354040283529160200191611757565b820191906000526020600020905b81548152906001019060200180831161173a57829003601f168201915b5050505050905090565b606061176c82610fd6565b6117ab576040517f08c379a00000000000000000000000000000000000000000000000000000000081526004016117a290612847565b60405180910390fd5b60006117b56116cf565b905060008151116117d55760405180602001604052806000815250611800565b806117df84611a2d565b6040516020016117f092919061256f565b6040516020818303038152906040525b915050919050565b6118128383611bda565b61181f6000848484611896565b61185e576040517f08c379a000000000000000000000000000000000000000000000000000000000815260040161185590612667565b60405180910390fd5b505050565b60008151905060006a636f6e736f6c652e6c6f679050602083016000808483855afa5050505050565b505050565b505050565b60006118b78473ffffffffffffffffffffffffffffffffffffffff16611db4565b15611a20578373ffffffffffffffffffffffffffffffffffffffff1663150b7a026118e0610e12565b8786866040518563ffffffff1660e01b815260040161190294939291906125ae565b602060405180830381600087803b15801561191c57600080fd5b505af192505050801561194d57506040513d601f19601f8201168201806040525081019061194a91906121d7565b60015b6119d0573d806000811461197d576040519150601f19603f3d011682016040523d82523d6000602084013e611982565b606091505b506000815114156119c8576040517f08c379a00000000000000000000000000000000000000000000000000000000081526004016119bf90612667565b60405180910390fd5b805181602001fd5b63150b7a0260e01b7bffffffffffffffffffffffffffffffffffffffffffffffffffffffff1916817bffffffffffffffffffffffffffffffffffffffffffffffffffffffff191614915050611a25565b600190505b949350505050565b60606000821415611a75576040518060400160405280600181526020017f30000000000000000000000000000000000000000000000000000000000000008152509050611bd5565b600082905060005b60008214611aa7578080611a9090612b60565b915050600a82611aa091906129e2565b9150611a7d565b60008167ffffffffffffffff811115611ae9577f4e487b7100000000000000000000000000000000000000000000000000000000600052604160045260246000fd5b6040519080825280601f01601f191660200182016040528015611b1b5781602001600182028036833780820191505090505b5090505b60008514611bce57600182611b349190612a13565b9150600a85611b439190612ba9565b6030611b4f919061298c565b60f81b818381518110611b8b577f4e487b7100000000000000000000000000000000000000000000000000000000600052603260045260246000fd5b60200101907effffffffffffffffffffffffffffffffffffffffffffffffffffffffffffff1916908160001a905350600a85611bc791906129e2565b9450611b1f565b8093505050505b919050565b600073ffffffffffffffffffffffffffffffffffffffff168273ffffffffffffffffffffffffffffffffffffffff161415611c4a576040517f08c379a0000000000000000000000000000000000000000000000000000000008152600401611c41906127c7565b60405180910390fd5b611c5381610fd6565b15611c93576040517f08c379a0000000000000000000000000000000000000000000000000000000008152600401611c8a906126c7565b60405180910390fd5b611c9f6000838361188c565b6001600360008473ffffffffffffffffffffffffffffffffffffffff1673ffffffffffffffffffffffffffffffffffffffff1681526020019081526020016000206000828254611cef919061298c565b92505081905550816002600083815260200190815260200160002060006101000a81548173ffffffffffffffffffffffffffffffffffffffff021916908373ffffffffffffffffffffffffffffffffffffffff160217905550808273ffffffffffffffffffffffffffffffffffffffff16600073ffffffffffffffffffffffffffffffffffffffff167fddf252ad1be2c89b69c2b068fc378daa952ba7f163c4a11628f55a4df523b3ef60405160405180910390a4611db060008383611891565b5050565b6000808273ffffffffffffffffffffffffffffffffffffffff163b119050919050565b828054611de390612afd565b90600052602060002090601f016020900481019282611e055760008555611e4c565b82601f10611e1e57805160ff1916838001178555611e4c565b82800160010185558215611e4c579182015b82811115611e4b578251825591602001919060010190611e30565b5b509050611e599190611e5d565b5090565b5b80821115611e76576000816000905550600101611e5e565b5090565b6000611e8d611e88846128e7565b6128c2565b905082815260208101848484011115611ea557600080fd5b611eb0848285612abb565b509392505050565b6000611ecb611ec684612918565b6128c2565b905082815260208101848484011115611ee357600080fd5b611eee848285612abb565b509392505050565b600081359050611f058161319d565b92915050565b600081359050611f1a816131b4565b92915050565b600081359050611f2f816131cb565b92915050565b600081519050611f44816131cb565b92915050565b600082601f830112611f5b57600080fd5b8135611f6b848260208601611e7a565b91505092915050565b600082601f830112611f8557600080fd5b8135611f95848260208601611eb8565b91505092915050565b600081359050611fad816131e2565b92915050565b600060208284031215611fc557600080fd5b6000611fd384828501611ef6565b91505092915050565b60008060408385031215611fef57600080fd5b6000611ffd85828601611ef6565b925050602061200e85828601611ef6565b9150509250929050565b60008060006060848603121561202d57600080fd5b600061203b86828701611ef6565b935050602061204c86828701611ef6565b925050604061205d86828701611f9e565b9150509250925092565b6000806000806080858703121561207d57600080fd5b600061208b87828801611ef6565b945050602061209c87828801611ef6565b93505060406120ad87828801611f9e565b925050606085013567ffffffffffffffff8111156120ca57600080fd5b6120d687828801611f4a565b91505092959194509250565b600080604083850312156120f557600080fd5b600061210385828601611ef6565b925050602061211485828601611f0b565b9150509250929050565b6000806040838503121561213157600080fd5b600061213f85828601611ef6565b925050602083013567ffffffffffffffff81111561215c57600080fd5b61216885828601611f74565b9150509250929050565b6000806040838503121561218557600080fd5b600061219385828601611ef6565b92505060206121a485828601611f9e565b9150509250929050565b6000602082840312156121c057600080fd5b60006121ce84828501611f20565b91505092915050565b6000602082840312156121e957600080fd5b60006121f784828501611f35565b91505092915050565b60006020828403121561221257600080fd5b600061222084828501611f9e565b91505092915050565b61223281612a47565b82525050565b61224181612a59565b82525050565b600061225282612949565b61225c818561295f565b935061226c818560208601612aca565b61227581612c96565b840191505092915050565b600061228b82612954565b6122958185612970565b93506122a5818560208601612aca565b6122ae81612c96565b840191505092915050565b60006122c482612954565b6122ce8185612981565b93506122de818560208601612aca565b80840191505092915050565b60006122f7603283612970565b915061230282612ca7565b604082019050919050565b600061231a602683612970565b915061232582612cf6565b604082019050919050565b600061233d602583612970565b915061234882612d45565b604082019050919050565b6000612360601c83612970565b915061236b82612d94565b602082019050919050565b6000612383602483612970565b915061238e82612dbd565b604082019050919050565b60006123a6601983612970565b91506123b182612e0c565b602082019050919050565b60006123c9602c83612970565b91506123d482612e35565b604082019050919050565b60006123ec603883612970565b91506123f782612e84565b604082019050919050565b600061240f602a83612970565b915061241a82612ed3565b604082019050919050565b6000612432602983612970565b915061243d82612f22565b604082019050919050565b6000612455602e83612970565b915061246082612f71565b604082019050919050565b6000612478602083612970565b915061248382612fc0565b602082019050919050565b600061249b603183612970565b91506124a682612fe9565b604082019050919050565b60006124be602c83612970565b91506124c982613038565b604082019050919050565b60006124e1602083612970565b91506124ec82613087565b602082019050919050565b6000612504602f83612970565b915061250f826130b0565b604082019050919050565b6000612527602183612970565b9150612532826130ff565b604082019050919050565b600061254a603183612970565b91506125558261314e565b604082019050919050565b61256981612ab1565b82525050565b600061257b82856122b9565b915061258782846122b9565b91508190509392505050565b60006020820190506125a86000830184612229565b92915050565b60006080820190506125c36000830187612229565b6125d06020830186612229565b6125dd6040830185612560565b81810360608301526125ef8184612247565b905095945050505050565b600060208201905061260f6000830184612238565b92915050565b6000602082019050818103600083015261262f8184612280565b905092915050565b600060408201905081810360008301526126518185612280565b90506126606020830184612560565b9392505050565b60006020820190508181036000830152612680816122ea565b9050919050565b600060208201905081810360008301526126a08161230d565b9050919050565b600060208201905081810360008301526126c081612330565b9050919050565b600060208201905081810360008301526126e081612353565b9050919050565b6000602082019050818103600083015261270081612376565b9050919050565b6000602082019050818103600083015261272081612399565b9050919050565b60006020820190508181036000830152612740816123bc565b9050919050565b60006020820190508181036000830152612760816123df565b9050919050565b6000602082019050818103600083015261278081612402565b9050919050565b600060208201905081810360008301526127a081612425565b9050919050565b600060208201905081810360008301526127c081612448565b9050919050565b600060208201905081810360008301526127e08161246b565b9050919050565b600060208201905081810360008301526128008161248e565b9050919050565b60006020820190508181036000830152612820816124b1565b9050919050565b60006020820190508181036000830152612840816124d4565b9050919050565b60006020820190508181036000830152612860816124f7565b9050919050565b600060208201905081810360008301526128808161251a565b9050919050565b600060208201905081810360008301526128a08161253d565b9050919050565b60006020820190506128bc6000830184612560565b92915050565b60006128cc6128dd565b90506128d88282612b2f565b919050565b6000604051905090565b600067ffffffffffffffff82111561290257612901612c67565b5b61290b82612c96565b9050602081019050919050565b600067ffffffffffffffff82111561293357612932612c67565b5b61293c82612c96565b9050602081019050919050565b600081519050919050565b600081519050919050565b600082825260208201905092915050565b600082825260208201905092915050565b600081905092915050565b600061299782612ab1565b91506129a283612ab1565b9250827fffffffffffffffffffffffffffffffffffffffffffffffffffffffffffffffff038211156129d7576129d6612bda565b5b828201905092915050565b60006129ed82612ab1565b91506129f883612ab1565b925082612a0857612a07612c09565b5b828204905092915050565b6000612a1e82612ab1565b9150612a2983612ab1565b925082821015612a3c57612a3b612bda565b5b828203905092915050565b6000612a5282612a91565b9050919050565b60008115159050919050565b60007fffffffff0000000000000000000000000000000000000000000000000000000082169050919050565b600073ffffffffffffffffffffffffffffffffffffffff82169050919050565b6000819050919050565b82818337600083830152505050565b60005b83811015612ae8578082015181840152602081019050612acd565b83811115612af7576000848401525b50505050565b60006002820490506001821680612b1557607f821691505b60208210811415612b2957612b28612c38565b5b50919050565b612b3882612c96565b810181811067ffffffffffffffff82111715612b5757612b56612c67565b5b80604052505050565b6000612b6b82612ab1565b91507fffffffffffffffffffffffffffffffffffffffffffffffffffffffffffffffff821415612b9e57612b9d612bda565b5b600182019050919050565b6000612bb482612ab1565b9150612bbf83612ab1565b925082612bcf57612bce612c09565b5b828206905092915050565b7f4e487b7100000000000000000000000000000000000000000000000000000000600052601160045260246000fd5b7f4e487b7100000000000000000000000000000000000000000000000000000000600052601260045260246000fd5b7f4e487b7100000000000000000000000000000000000000000000000000000000600052602260045260246000fd5b7f4e487b7100000000000000000000000000000000000000000000000000000000600052604160045260246000fd5b6000601f19601f8301169050919050565b7f4552433732313a207472616e7366657220746f206e6f6e20455243373231526560008201527f63656976657220696d706c656d656e7465720000000000000000000000000000602082015250565b7f4f776e61626c653a206e6577206f776e657220697320746865207a65726f206160008201527f6464726573730000000000000000000000000000000000000000000000000000602082015250565b7f4552433732313a207472616e736665722066726f6d20696e636f72726563742060008201527f6f776e6572000000000000000000000000000000000000000000000000000000602082015250565b7f4552433732313a20746f6b656e20616c7265616479206d696e74656400000000600082015250565b7f4552433732313a207472616e7366657220746f20746865207a65726f2061646460008201527f7265737300000000000000000000000000000000000000000000000000000000602082015250565b7f4552433732313a20617070726f766520746f2063616c6c657200000000000000600082015250565b7f4552433732313a206f70657261746f7220717565727920666f72206e6f6e657860008201527f697374656e7420746f6b656e0000000000000000000000000000000000000000602082015250565b7f4552433732313a20617070726f76652063616c6c6572206973206e6f74206f7760008201527f6e6572206e6f7220617070726f76656420666f7220616c6c0000000000000000602082015250565b7f4552433732313a2062616c616e636520717565727920666f7220746865207a6560008201527f726f206164647265737300000000000000000000000000000000000000000000602082015250565b7f4552433732313a206f776e657220717565727920666f72206e6f6e657869737460008201527f656e7420746f6b656e0000000000000000000000000000000000000000000000602082015250565b7f45524337323155524953746f726167653a2055524920736574206f66206e6f6e60008201527f6578697374656e7420746f6b656e000000000000000000000000000000000000602082015250565b7f4552433732313a206d696e7420746f20746865207a65726f2061646472657373600082015250565b7f45524337323155524953746f726167653a2055524920717565727920666f722060008201527f6e6f6e6578697374656e7420746f6b656e000000000000000000000000000000602082015250565b7f4552433732313a20617070726f76656420717565727920666f72206e6f6e657860008201527f697374656e7420746f6b656e0000000000000000000000000000000000000000602082015250565b7f4f776e61626c653a2063616c6c6572206973206e6f7420746865206f776e6572600082015250565b7f4552433732314d657461646174613a2055524920717565727920666f72206e6f60008201527f6e6578697374656e7420746f6b656e0000000000000000000000000000000000602082015250565b7f4552433732313a20617070726f76616c20746f2063757272656e74206f776e6560008201527f7200000000000000000000000000000000000000000000000000000000000000602082015250565b7f4552433732313a207472616e736665722063616c6c6572206973206e6f74206f60008201527f776e6572206e6f7220617070726f766564000000000000000000000000000000602082015250565b6131a681612a47565b81146131b157600080fd5b50565b6131bd81612a59565b81146131c857600080fd5b50565b6131d481612a65565b81146131df57600080fd5b50565b6131eb81612ab1565b81146131f657600080fd5b5056fea26469706673582212207136749f7888d5052d6d833cf4c3562f3a2f41de933220d62dc3af63927d9fe064736f6c63430008040033",
  "linkReferences": {},
  "deployedLinkReferences": {}
}