{
  "_format": "hh-sol-artifact-1",
  "contractName": "MyNFT",
  "sourceName": "contracts/MyNFT.sol",
  "abi": [
    {
      "inputs": [
        {
          "internalType": "string",
          "name": "_name",
          "type": "string"
        },
        {
          "internalType": "string",
          "name": "_symbol",
          "type": "string"
        },
        {
          "internalType": "string",
          "name": "_baseUri",
          "type": "string"
        }
      ],
      "stateMutability": "nonpayable",
      "type": "constructor"
    },
    {
      "anonymous": false,
      "inputs": [
        {
          "indexed": true,
          "internalType": "address",
          "name": "owner",
          "type": "address"
        },
        {
          "indexed": true,
          "internalType": "address",
          "name": "approved",
          "type": "address"
        },
        {
          "indexed": true,
          "internalType": "uint256",
          "name": "tokenId",
          "type": "uint256"
        }
      ],
      "name": "Approval",
      "type": "event"
    },
    {
      "anonymous": false,
      "inputs": [
        {
          "indexed": true,
          "internalType": "address",
          "name": "owner",
          "type": "address"
        },
        {
          "indexed": true,
          "internalType": "address",
          "name": "operator",
          "type": "address"
        },
        {
          "indexed": false,
          "internalType": "bool",
          "name": "approved",
          "type": "bool"
        }
      ],
      "name": "ApprovalForAll",
      "type": "event"
    },
    {
      "anonymous": false,
      "inputs": [
        {
          "indexed": true,
          "internalType": "address",
          "name": "previousOwner",
          "type": "address"
        },
        {
          "indexed": true,
          "internalType": "address",
          "name": "newOwner",
          "type": "address"
        }
      ],
      "name": "OwnershipTransferred",
      "type": "event"
    },
    {
      "anonymous": false,
      "inputs": [
        {
          "indexed": true,
          "internalType": "address",
          "name": "from",
          "type": "address"
        },
        {
          "indexed": true,
          "internalType": "address",
          "name": "to",
          "type": "address"
        },
        {
          "indexed": true,
          "internalType": "uint256",
          "name": "tokenId",
          "type": "uint256"
        }
      ],
      "name": "Transfer",
      "type": "event"
    },
    {
      "inputs": [
        {
          "internalType": "address",
          "name": "to",
          "type": "address"
        },
        {
          "internalType": "uint256",
          "name": "tokenId",
          "type": "uint256"
        }
      ],
      "name": "approve",
      "outputs": [],
      "stateMutability": "nonpayable",
      "type": "function"
    },
    {
      "inputs": [
        {
          "internalType": "address",
          "name": "owner",
          "type": "address"
        }
      ],
      "name": "balanceOf",
      "outputs": [
        {
          "internalType": "uint256",
          "name": "",
          "type": "uint256"
        }
      ],
      "stateMutability": "view",
      "type": "function"
    },
    {
      "inputs": [
        {
          "internalType": "uint256",
          "name": "tokenId",
          "type": "uint256"
        }
      ],
      "name": "getApproved",
      "outputs": [
        {
          "internalType": "address",
          "name": "",
          "type": "address"
        }
      ],
      "stateMutability": "view",
      "type": "function"
    },
    {
      "inputs": [
        {
          "internalType": "address",
          "name": "owner",
          "type": "address"
        },
        {
          "internalType": "address",
          "name": "operator",
          "type": "address"
        }
      ],
      "name": "isApprovedForAll",
      "outputs": [
        {
          "internalType": "bool",
          "name": "",
          "type": "bool"
        }
      ],
      "stateMutability": "view",
      "type": "function"
    },
    {
      "inputs": [
        {
          "internalType": "address",
          "name": "_to",
          "type": "address"
        },
        {
          "internalType": "string",
          "name": "_tokenURL",
          "type": "string"
        },
        {
          "internalType": "string",
          "name": "_description",
          "type": "string"
        }
      ],
      "name": "mintTo",
      "outputs": [],
      "stateMutability": "nonpayable",
      "type": "function"
    },
    {
      "inputs": [],
      "name": "name",
      "outputs": [
        {
          "internalType": "string",
          "name": "",
          "type": "string"
        }
      ],
      "stateMutability": "view",
      "type": "function"
    },
    {
      "inputs": [],
      "name": "owner",
      "outputs": [
        {
          "internalType": "address",
          "name": "",
          "type": "address"
        }
      ],
      "stateMutability": "view",
      "type": "function"
    },
    {
      "inputs": [
        {
          "internalType": "uint256",
          "name": "tokenId",
          "type": "uint256"
        }
      ],
      "name": "ownerOf",
      "outputs": [
        {
          "internalType": "address",
          "name": "",
          "type": "address"
        }
      ],
      "stateMutability": "view",
      "type": "function"
    },
    {
      "inputs": [],
      "name": "renounceOwnership",
      "outputs": [],
      "stateMutability": "nonpayable",
      "type": "function"
    },
    {
      "inputs": [
        {
          "internalType": "address",
          "name": "from",
          "type": "address"
        },
        {
          "internalType": "address",
          "name": "to",
          "type": "address"
        },
        {
          "internalType": "uint256",
          "name": "tokenId",
          "type": "uint256"
        }
      ],
      "name": "safeTransferFrom",
      "outputs": [],
      "stateMutability": "nonpayable",
      "type": "function"
    },
    {
      "inputs": [
        {
          "internalType": "address",
          "name": "from",
          "type": "address"
        },
        {
          "internalType": "address",
          "name": "to",
          "type": "address"
        },
        {
          "internalType": "uint256",
          "name": "tokenId",
          "type": "uint256"
        },
        {
          "internalType": "bytes",
          "name": "_data",
          "type": "bytes"
        }
      ],
      "name": "safeTransferFrom",
      "outputs": [],
      "stateMutability": "nonpayable",
      "type": "function"
    },
    {
      "inputs": [
        {
          "internalType": "address",
          "name": "operator",
          "type": "address"
        },
        {
          "internalType": "bool",
          "name": "approved",
          "type": "bool"
        }
      ],
      "name": "setApprovalForAll",
      "outputs": [],
      "stateMutability": "nonpayable",
      "type": "function"
    },
    {
      "inputs": [
        {
          "internalType": "bytes4",
          "name": "interfaceId",
          "type": "bytes4"
        }
      ],
      "name": "supportsInterface",
      "outputs": [
        {
          "internalType": "bool",
          "name": "",
          "type": "bool"
        }
      ],
      "stateMutability": "view",
      "type": "function"
    },
    {
      "inputs": [],
      "name": "symbol",
      "outputs": [
        {
          "internalType": "string",
          "name": "",
          "type": "string"
        }
      ],
      "stateMutability": "view",
      "type": "function"
    },
    {
      "inputs": [
        {
          "internalType": "uint256",
          "name": "tokenId",
          "type": "uint256"
        }
      ],
      "name": "tokenDescription",
      "outputs": [
        {
          "internalType": "string",
          "name": "",
          "type": "string"
        }
      ],
      "stateMutability": "view",
      "type": "function"
    },
    {
      "inputs": [
        {
          "internalType": "uint256",
          "name": "tokenId",
          "type": "uint256"
        }
      ],
      "name": "tokenURI",
      "outputs": [
        {
          "internalType": "string",
          "name": "",
          "type": "string"
        }
      ],
      "stateMutability": "view",
      "type": "function"
    },
    {
      "inputs": [],
      "name": "totalSupply",
      "outputs": [
        {
          "internalType": "uint256",
          "name": "",
          "type": "uint256"
        }
      ],
      "stateMutability": "view",
      "type": "function"
    },
    {
      "inputs": [
        {
          "internalType": "address",
          "name": "from",
          "type": "address"
        },
        {
          "internalType": "address",
          "name": "to",
          "type": "address"
        },
        {
          "internalType": "uint256",
          "name": "tokenId",
          "type": "uint256"
        }
      ],
      "name": "transferFrom",
      "outputs": [],
      "stateMutability": "nonpayable",
      "type": "function"
    },
    {
      "inputs": [
        {
          "internalType": "address",
          "name": "newOwner",
          "type": "address"
        }
      ],
      "name": "transferOwnership",
      "outputs": [],
      "stateMutability": "nonpayable",
      "type": "function"
    }
  ],
  "bytecode": "0x60806040523480156200001157600080fd5b506040516200395a3803806200395a83398181016040528101906200003791906200029f565b82828160009080519060200190620000519291906200017d565b5080600190805190602001906200006a9291906200017d565b5050506200008d62000081620000af60201b60201c565b620000b760201b60201c565b80600a9080519060200190620000a59291906200017d565b50505050620004b0565b600033905090565b6000600760009054906101000a900473ffffffffffffffffffffffffffffffffffffffff16905081600760006101000a81548173ffffffffffffffffffffffffffffffffffffffff021916908373ffffffffffffffffffffffffffffffffffffffff1602179055508173ffffffffffffffffffffffffffffffffffffffff168173ffffffffffffffffffffffffffffffffffffffff167f8be0079c531659141344cd1fd0a4f28419497f9722a3daafe3b4186f6b6457e060405160405180910390a35050565b8280546200018b90620003d5565b90600052602060002090601f016020900481019282620001af5760008555620001fb565b82601f10620001ca57805160ff1916838001178555620001fb565b82800160010185558215620001fb579182015b82811115620001fa578251825591602001919060010190620001dd565b5b5090506200020a91906200020e565b5090565b5b80821115620002295760008160009055506001016200020f565b5090565b6000620002446200023e8462000369565b62000340565b9050828152602081018484840111156200025d57600080fd5b6200026a8482856200039f565b509392505050565b600082601f8301126200028457600080fd5b8151620002968482602086016200022d565b91505092915050565b600080600060608486031215620002b557600080fd5b600084015167ffffffffffffffff811115620002d057600080fd5b620002de8682870162000272565b935050602084015167ffffffffffffffff811115620002fc57600080fd5b6200030a8682870162000272565b925050604084015167ffffffffffffffff8111156200032857600080fd5b620003368682870162000272565b9150509250925092565b60006200034c6200035f565b90506200035a82826200040b565b919050565b6000604051905090565b600067ffffffffffffffff82111562000387576200038662000470565b5b62000392826200049f565b9050602081019050919050565b60005b83811015620003bf578082015181840152602081019050620003a2565b83811115620003cf576000848401525b50505050565b60006002820490506001821680620003ee57607f821691505b6020821081141562000405576200040462000441565b5b50919050565b62000416826200049f565b810181811067ffffffffffffffff8211171562000438576200043762000470565b5b80604052505050565b7f4e487b7100000000000000000000000000000000000000000000000000000000600052602260045260246000fd5b7f4e487b7100000000000000000000000000000000000000000000000000000000600052604160045260246000fd5b6000601f19601f8301169050919050565b61349a80620004c06000396000f3fe608060405234801561001057600080fd5b50600436106101215760003560e01c8063715018a6116100ad578063a22cb46511610071578063a22cb46514610308578063b88d4fde14610324578063c87b56dd14610340578063e985e9c514610370578063f2fde38b146103a057610121565b8063715018a6146102765780637897f76a146102805780638da5cb5b1461029c57806395d89b41146102ba578063a0c6d537146102d857610121565b806318160ddd116100f457806318160ddd146101c057806323b872dd146101de57806342842e0e146101fa5780636352211e1461021657806370a082311461024657610121565b806301ffc9a71461012657806306fdde0314610156578063081812fc14610174578063095ea7b3146101a4575b600080fd5b610140600480360381019061013b9190612387565b6103bc565b60405161014d91906127f6565b60405180910390f35b61015e61049e565b60405161016b9190612811565b60405180910390f35b61018e600480360381019061018991906123d9565b610530565b60405161019b919061278f565b60405180910390f35b6101be60048036038101906101b9919061234b565b6105b5565b005b6101c86106cd565b6040516101d59190612ac3565b60405180910390f35b6101f860048036038101906101f391906121c6565b6106de565b005b610214600480360381019061020f91906121c6565b61073e565b005b610230600480360381019061022b91906123d9565b61075e565b60405161023d919061278f565b60405180910390f35b610260600480360381019061025b9190612161565b610810565b60405161026d9190612ac3565b60405180910390f35b61027e6108c8565b005b61029a600480360381019061029591906122cc565b610950565b005b6102a4610a47565b6040516102b1919061278f565b60405180910390f35b6102c2610a71565b6040516102cf9190612811565b60405180910390f35b6102f260048036038101906102ed91906123d9565b610b03565b6040516102ff9190612811565b60405180910390f35b610322600480360381019061031d9190612290565b610bf6565b005b61033e60048036038101906103399190612215565b610c0c565b005b61035a600480360381019061035591906123d9565b610c6e565b6040516103679190612811565b60405180910390f35b61038a6004803603810190610385919061218a565b610dc0565b60405161039791906127f6565b60405180910390f35b6103ba60048036038101906103b59190612161565b610e54565b005b60007f80ac58cd000000000000000000000000000000000000000000000000000000007bffffffffffffffffffffffffffffffffffffffffffffffffffffffff1916827bffffffffffffffffffffffffffffffffffffffffffffffffffffffff1916148061048757507f5b5e139f000000000000000000000000000000000000000000000000000000007bffffffffffffffffffffffffffffffffffffffffffffffffffffffff1916827bffffffffffffffffffffffffffffffffffffffffffffffffffffffff1916145b80610497575061049682610f4c565b5b9050919050565b6060600080546104ad90612d19565b80601f01602080910402602001604051908101604052809291908181526020018280546104d990612d19565b80156105265780601f106104fb57610100808354040283529160200191610526565b820191906000526020600020905b81548152906001019060200180831161050957829003601f168201915b5050505050905090565b600061053b82610fb6565b61057a576040517f08c379a000000000000000000000000000000000000000000000000000000000815260040161057190612a03565b60405180910390fd5b6004600083815260200190815260200160002060009054906101000a900473ffffffffffffffffffffffffffffffffffffffff169050919050565b60006105c08261075e565b90508073ffffffffffffffffffffffffffffffffffffffff168373ffffffffffffffffffffffffffffffffffffffff161415610631576040517f08c379a000000000000000000000000000000000000000000000000000000000815260040161062890612a63565b60405180910390fd5b8073ffffffffffffffffffffffffffffffffffffffff16610650611022565b73ffffffffffffffffffffffffffffffffffffffff16148061067f575061067e81610679611022565b610dc0565b5b6106be576040517f08c379a00000000000000000000000000000000000000000000000000000000081526004016106b590612943565b60405180910390fd5b6106c8838361102a565b505050565b60006106d960096110e3565b905090565b6106ef6106e9611022565b826110f1565b61072e576040517f08c379a000000000000000000000000000000000000000000000000000000000815260040161072590612a83565b60405180910390fd5b6107398383836111cf565b505050565b61075983838360405180602001604052806000815250610c0c565b505050565b6000806002600084815260200190815260200160002060009054906101000a900473ffffffffffffffffffffffffffffffffffffffff169050600073ffffffffffffffffffffffffffffffffffffffff168173ffffffffffffffffffffffffffffffffffffffff161415610807576040517f08c379a00000000000000000000000000000000000000000000000000000000081526004016107fe90612983565b60405180910390fd5b80915050919050565b60008073ffffffffffffffffffffffffffffffffffffffff168273ffffffffffffffffffffffffffffffffffffffff161415610881576040517f08c379a000000000000000000000000000000000000000000000000000000000815260040161087890612963565b60405180910390fd5b600360008373ffffffffffffffffffffffffffffffffffffffff1673ffffffffffffffffffffffffffffffffffffffff168152602001908152602001600020549050919050565b6108d0611022565b73ffffffffffffffffffffffffffffffffffffffff166108ee610a47565b73ffffffffffffffffffffffffffffffffffffffff1614610944576040517f08c379a000000000000000000000000000000000000000000000000000000000815260040161093b90612a23565b60405180910390fd5b61094e6000611436565b565b610958611022565b73ffffffffffffffffffffffffffffffffffffffff16610976610a47565b73ffffffffffffffffffffffffffffffffffffffff16146109cc576040517f08c379a00000000000000000000000000000000000000000000000000000000081526004016109c390612a23565b60405180910390fd5b6109d660096114fc565b60006109e260096110e3565b90506109ee8482611512565b6109f88184611530565b610a0281836115a4565b610a416040518060400160405280600d81526020017f4d696e7465642061742069643a0000000000000000000000000000000000000081525082611618565b50505050565b6000600760009054906101000a900473ffffffffffffffffffffffffffffffffffffffff16905090565b606060018054610a8090612d19565b80601f0160208091040260200160405190810160405280929190818152602001828054610aac90612d19565b8015610af95780601f10610ace57610100808354040283529160200191610af9565b820191906000526020600020905b815481529060010190602001808311610adc57829003601f168201915b5050505050905090565b6060610b0e82610fb6565b610b4d576040517f08c379a0000000000000000000000000000000000000000000000000000000008152600401610b4490612aa3565b60405180910390fd5b6000600860008481526020019081526020016000208054610b6d90612d19565b80601f0160208091040260200160405190810160405280929190818152602001828054610b9990612d19565b8015610be65780601f10610bbb57610100808354040283529160200191610be6565b820191906000526020600020905b815481529060010190602001808311610bc957829003601f168201915b5050505050905080915050919050565b610c08610c01611022565b83836116b4565b5050565b610c1d610c17611022565b836110f1565b610c5c576040517f08c379a0000000000000000000000000000000000000000000000000000000008152600401610c5390612a83565b60405180910390fd5b610c6884848484611821565b50505050565b6060610c7982610fb6565b610cb8576040517f08c379a0000000000000000000000000000000000000000000000000000000008152600401610caf906129e3565b60405180910390fd5b6000600660008481526020019081526020016000208054610cd890612d19565b80601f0160208091040260200160405190810160405280929190818152602001828054610d0490612d19565b8015610d515780601f10610d2657610100808354040283529160200191610d51565b820191906000526020600020905b815481529060010190602001808311610d3457829003601f168201915b505050505090506000610d6261187d565b9050600081511415610d78578192505050610dbb565b600082511115610dad578082604051602001610d9592919061276b565b60405160208183030381529060405292505050610dbb565b610db68461190f565b925050505b919050565b6000600560008473ffffffffffffffffffffffffffffffffffffffff1673ffffffffffffffffffffffffffffffffffffffff16815260200190815260200160002060008373ffffffffffffffffffffffffffffffffffffffff1673ffffffffffffffffffffffffffffffffffffffff16815260200190815260200160002060009054906101000a900460ff16905092915050565b610e5c611022565b73ffffffffffffffffffffffffffffffffffffffff16610e7a610a47565b73ffffffffffffffffffffffffffffffffffffffff1614610ed0576040517f08c379a0000000000000000000000000000000000000000000000000000000008152600401610ec790612a23565b60405180910390fd5b600073ffffffffffffffffffffffffffffffffffffffff168173ffffffffffffffffffffffffffffffffffffffff161415610f40576040517f08c379a0000000000000000000000000000000000000000000000000000000008152600401610f3790612883565b60405180910390fd5b610f4981611436565b50565b60007f01ffc9a7000000000000000000000000000000000000000000000000000000007bffffffffffffffffffffffffffffffffffffffffffffffffffffffff1916827bffffffffffffffffffffffffffffffffffffffffffffffffffffffff1916149050919050565b60008073ffffffffffffffffffffffffffffffffffffffff166002600084815260200190815260200160002060009054906101000a900473ffffffffffffffffffffffffffffffffffffffff1673ffffffffffffffffffffffffffffffffffffffff1614159050919050565b600033905090565b816004600083815260200190815260200160002060006101000a81548173ffffffffffffffffffffffffffffffffffffffff021916908373ffffffffffffffffffffffffffffffffffffffff160217905550808273ffffffffffffffffffffffffffffffffffffffff1661109d8361075e565b73ffffffffffffffffffffffffffffffffffffffff167f8c5be1e5ebec7d5bd14f71427d1e84f3dd0314c0f7b2291e5b200ac8c7c3b92560405160405180910390a45050565b600081600001549050919050565b60006110fc82610fb6565b61113b576040517f08c379a000000000000000000000000000000000000000000000000000000000815260040161113290612923565b60405180910390fd5b60006111468361075e565b90508073ffffffffffffffffffffffffffffffffffffffff168473ffffffffffffffffffffffffffffffffffffffff16148061118857506111878185610dc0565b5b806111c657508373ffffffffffffffffffffffffffffffffffffffff166111ae84610530565b73ffffffffffffffffffffffffffffffffffffffff16145b91505092915050565b8273ffffffffffffffffffffffffffffffffffffffff166111ef8261075e565b73ffffffffffffffffffffffffffffffffffffffff1614611245576040517f08c379a000000000000000000000000000000000000000000000000000000000815260040161123c906128a3565b60405180910390fd5b600073ffffffffffffffffffffffffffffffffffffffff168273ffffffffffffffffffffffffffffffffffffffff1614156112b5576040517f08c379a00000000000000000000000000000000000000000000000000000000081526004016112ac906128e3565b60405180910390fd5b6112c08383836119b6565b6112cb60008261102a565b6001600360008573ffffffffffffffffffffffffffffffffffffffff1673ffffffffffffffffffffffffffffffffffffffff168152602001908152602001600020600082825461131b9190612c2f565b925050819055506001600360008473ffffffffffffffffffffffffffffffffffffffff1673ffffffffffffffffffffffffffffffffffffffff16815260200190815260200160002060008282546113729190612ba8565b92505081905550816002600083815260200190815260200160002060006101000a81548173ffffffffffffffffffffffffffffffffffffffff021916908373ffffffffffffffffffffffffffffffffffffffff160217905550808273ffffffffffffffffffffffffffffffffffffffff168473ffffffffffffffffffffffffffffffffffffffff167fddf252ad1be2c89b69c2b068fc378daa952ba7f163c4a11628f55a4df523b3ef60405160405180910390a46114318383836119bb565b505050565b6000600760009054906101000a900473ffffffffffffffffffffffffffffffffffffffff16905081600760006101000a81548173ffffffffffffffffffffffffffffffffffffffff021916908373ffffffffffffffffffffffffffffffffffffffff1602179055508173ffffffffffffffffffffffffffffffffffffffff168173ffffffffffffffffffffffffffffffffffffffff167f8be0079c531659141344cd1fd0a4f28419497f9722a3daafe3b4186f6b6457e060405160405180910390a35050565b6001816000016000828254019250508190555050565b61152c8282604051806020016040528060008152506119c0565b5050565b61153982610fb6565b611578576040517f08c379a000000000000000000000000000000000000000000000000000000000815260040161156f906129a3565b60405180910390fd5b8060066000848152602001908152602001600020908051906020019061159f929190611f85565b505050565b6115ad82610fb6565b6115ec576040517f08c379a00000000000000000000000000000000000000000000000000000000081526004016115e390612aa3565b60405180910390fd5b80600860008481526020019081526020016000209080519060200190611613929190611f85565b505050565b6116b0828260405160240161162e929190612833565b6040516020818303038152906040527f9710a9d0000000000000000000000000000000000000000000000000000000007bffffffffffffffffffffffffffffffffffffffffffffffffffffffff19166020820180517bffffffffffffffffffffffffffffffffffffffffffffffffffffffff8381831617835250505050611a1b565b5050565b8173ffffffffffffffffffffffffffffffffffffffff168373ffffffffffffffffffffffffffffffffffffffff161415611723576040517f08c379a000000000000000000000000000000000000000000000000000000000815260040161171a90612903565b60405180910390fd5b80600560008573ffffffffffffffffffffffffffffffffffffffff1673ffffffffffffffffffffffffffffffffffffffff16815260200190815260200160002060008473ffffffffffffffffffffffffffffffffffffffff1673ffffffffffffffffffffffffffffffffffffffff16815260200190815260200160002060006101000a81548160ff0219169083151502179055508173ffffffffffffffffffffffffffffffffffffffff168373ffffffffffffffffffffffffffffffffffffffff167f17307eab39ab6107e8899845ad3d59bd9653f200f220920489ca2b5937696c318360405161181491906127f6565b60405180910390a3505050565b61182c8484846111cf565b61183884848484611a44565b611877576040517f08c379a000000000000000000000000000000000000000000000000000000000815260040161186e90612863565b60405180910390fd5b50505050565b6060600a805461188c90612d19565b80601f01602080910402602001604051908101604052809291908181526020018280546118b890612d19565b80156119055780601f106118da57610100808354040283529160200191611905565b820191906000526020600020905b8154815290600101906020018083116118e857829003601f168201915b5050505050905090565b606061191a82610fb6565b611959576040517f08c379a000000000000000000000000000000000000000000000000000000000815260040161195090612a43565b60405180910390fd5b600061196361187d565b9050600081511161198357604051806020016040528060008152506119ae565b8061198d84611bdb565b60405160200161199e92919061276b565b6040516020818303038152906040525b915050919050565b505050565b505050565b6119ca8383611d88565b6119d76000848484611a44565b611a16576040517f08c379a0000000000000000000000000000000000000000000000000000000008152600401611a0d90612863565b60405180910390fd5b505050565b60008151905060006a636f6e736f6c652e6c6f679050602083016000808483855afa5050505050565b6000611a658473ffffffffffffffffffffffffffffffffffffffff16611f62565b15611bce578373ffffffffffffffffffffffffffffffffffffffff1663150b7a02611a8e611022565b8786866040518563ffffffff1660e01b8152600401611ab094939291906127aa565b602060405180830381600087803b158015611aca57600080fd5b505af1925050508015611afb57506040513d601f19601f82011682018060405250810190611af891906123b0565b60015b611b7e573d8060008114611b2b576040519150601f19603f3d011682016040523d82523d6000602084013e611b30565b606091505b50600081511415611b76576040517f08c379a0000000000000000000000000000000000000000000000000000000008152600401611b6d90612863565b60405180910390fd5b805181602001fd5b63150b7a0260e01b7bffffffffffffffffffffffffffffffffffffffffffffffffffffffff1916817bffffffffffffffffffffffffffffffffffffffffffffffffffffffff191614915050611bd3565b600190505b949350505050565b60606000821415611c23576040518060400160405280600181526020017f30000000000000000000000000000000000000000000000000000000000000008152509050611d83565b600082905060005b60008214611c55578080611c3e90612d7c565b915050600a82611c4e9190612bfe565b9150611c2b565b60008167ffffffffffffffff811115611c97577f4e487b7100000000000000000000000000000000000000000000000000000000600052604160045260246000fd5b6040519080825280601f01601f191660200182016040528015611cc95781602001600182028036833780820191505090505b5090505b60008514611d7c57600182611ce29190612c2f565b9150600a85611cf19190612dc5565b6030611cfd9190612ba8565b60f81b818381518110611d39577f4e487b7100000000000000000000000000000000000000000000000000000000600052603260045260246000fd5b60200101907effffffffffffffffffffffffffffffffffffffffffffffffffffffffffffff1916908160001a905350600a85611d759190612bfe565b9450611ccd565b8093505050505b919050565b600073ffffffffffffffffffffffffffffffffffffffff168273ffffffffffffffffffffffffffffffffffffffff161415611df8576040517f08c379a0000000000000000000000000000000000000000000000000000000008152600401611def906129c3565b60405180910390fd5b611e0181610fb6565b15611e41576040517f08c379a0000000000000000000000000000000000000000000000000000000008152600401611e38906128c3565b60405180910390fd5b611e4d600083836119b6565b6001600360008473ffffffffffffffffffffffffffffffffffffffff1673ffffffffffffffffffffffffffffffffffffffff1681526020019081526020016000206000828254611e9d9190612ba8565b92505081905550816002600083815260200190815260200160002060006101000a81548173ffffffffffffffffffffffffffffffffffffffff021916908373ffffffffffffffffffffffffffffffffffffffff160217905550808273ffffffffffffffffffffffffffffffffffffffff16600073ffffffffffffffffffffffffffffffffffffffff167fddf252ad1be2c89b69c2b068fc378daa952ba7f163c4a11628f55a4df523b3ef60405160405180910390a4611f5e600083836119bb565b5050565b6000808273ffffffffffffffffffffffffffffffffffffffff163b119050919050565b828054611f9190612d19565b90600052602060002090601f016020900481019282611fb35760008555611ffa565b82601f10611fcc57805160ff1916838001178555611ffa565b82800160010185558215611ffa579182015b82811115611ff9578251825591602001919060010190611fde565b5b509050612007919061200b565b5090565b5b8082111561202457600081600090555060010161200c565b5090565b600061203b61203684612b03565b612ade565b90508281526020810184848401111561205357600080fd5b61205e848285612cd7565b509392505050565b600061207961207484612b34565b612ade565b90508281526020810184848401111561209157600080fd5b61209c848285612cd7565b509392505050565b6000813590506120b381613408565b92915050565b6000813590506120c88161341f565b92915050565b6000813590506120dd81613436565b92915050565b6000815190506120f281613436565b92915050565b600082601f83011261210957600080fd5b8135612119848260208601612028565b91505092915050565b600082601f83011261213357600080fd5b8135612143848260208601612066565b91505092915050565b60008135905061215b8161344d565b92915050565b60006020828403121561217357600080fd5b6000612181848285016120a4565b91505092915050565b6000806040838503121561219d57600080fd5b60006121ab858286016120a4565b92505060206121bc858286016120a4565b9150509250929050565b6000806000606084860312156121db57600080fd5b60006121e9868287016120a4565b93505060206121fa868287016120a4565b925050604061220b8682870161214c565b9150509250925092565b6000806000806080858703121561222b57600080fd5b6000612239878288016120a4565b945050602061224a878288016120a4565b935050604061225b8782880161214c565b925050606085013567ffffffffffffffff81111561227857600080fd5b612284878288016120f8565b91505092959194509250565b600080604083850312156122a357600080fd5b60006122b1858286016120a4565b92505060206122c2858286016120b9565b9150509250929050565b6000806000606084860312156122e157600080fd5b60006122ef868287016120a4565b935050602084013567ffffffffffffffff81111561230c57600080fd5b61231886828701612122565b925050604084013567ffffffffffffffff81111561233557600080fd5b61234186828701612122565b9150509250925092565b6000806040838503121561235e57600080fd5b600061236c858286016120a4565b925050602061237d8582860161214c565b9150509250929050565b60006020828403121561239957600080fd5b60006123a7848285016120ce565b91505092915050565b6000602082840312156123c257600080fd5b60006123d0848285016120e3565b91505092915050565b6000602082840312156123eb57600080fd5b60006123f98482850161214c565b91505092915050565b61240b81612c63565b82525050565b61241a81612c75565b82525050565b600061242b82612b65565b6124358185612b7b565b9350612445818560208601612ce6565b61244e81612eb2565b840191505092915050565b600061246482612b70565b61246e8185612b8c565b935061247e818560208601612ce6565b61248781612eb2565b840191505092915050565b600061249d82612b70565b6124a78185612b9d565b93506124b7818560208601612ce6565b80840191505092915050565b60006124d0603283612b8c565b91506124db82612ec3565b604082019050919050565b60006124f3602683612b8c565b91506124fe82612f12565b604082019050919050565b6000612516602583612b8c565b915061252182612f61565b604082019050919050565b6000612539601c83612b8c565b915061254482612fb0565b602082019050919050565b600061255c602483612b8c565b915061256782612fd9565b604082019050919050565b600061257f601983612b8c565b915061258a82613028565b602082019050919050565b60006125a2602c83612b8c565b91506125ad82613051565b604082019050919050565b60006125c5603883612b8c565b91506125d0826130a0565b604082019050919050565b60006125e8602a83612b8c565b91506125f3826130ef565b604082019050919050565b600061260b602983612b8c565b91506126168261313e565b604082019050919050565b600061262e602e83612b8c565b91506126398261318d565b604082019050919050565b6000612651602083612b8c565b915061265c826131dc565b602082019050919050565b6000612674603183612b8c565b915061267f82613205565b604082019050919050565b6000612697602c83612b8c565b91506126a282613254565b604082019050919050565b60006126ba602083612b8c565b91506126c5826132a3565b602082019050919050565b60006126dd602f83612b8c565b91506126e8826132cc565b604082019050919050565b6000612700602183612b8c565b915061270b8261331b565b604082019050919050565b6000612723603183612b8c565b915061272e8261336a565b604082019050919050565b6000612746602b83612b8c565b9150612751826133b9565b604082019050919050565b61276581612ccd565b82525050565b60006127778285612492565b91506127838284612492565b91508190509392505050565b60006020820190506127a46000830184612402565b92915050565b60006080820190506127bf6000830187612402565b6127cc6020830186612402565b6127d9604083018561275c565b81810360608301526127eb8184612420565b905095945050505050565b600060208201905061280b6000830184612411565b92915050565b6000602082019050818103600083015261282b8184612459565b905092915050565b6000604082019050818103600083015261284d8185612459565b905061285c602083018461275c565b9392505050565b6000602082019050818103600083015261287c816124c3565b9050919050565b6000602082019050818103600083015261289c816124e6565b9050919050565b600060208201905081810360008301526128bc81612509565b9050919050565b600060208201905081810360008301526128dc8161252c565b9050919050565b600060208201905081810360008301526128fc8161254f565b9050919050565b6000602082019050818103600083015261291c81612572565b9050919050565b6000602082019050818103600083015261293c81612595565b9050919050565b6000602082019050818103600083015261295c816125b8565b9050919050565b6000602082019050818103600083015261297c816125db565b9050919050565b6000602082019050818103600083015261299c816125fe565b9050919050565b600060208201905081810360008301526129bc81612621565b9050919050565b600060208201905081810360008301526129dc81612644565b9050919050565b600060208201905081810360008301526129fc81612667565b9050919050565b60006020820190508181036000830152612a1c8161268a565b9050919050565b60006020820190508181036000830152612a3c816126ad565b9050919050565b60006020820190508181036000830152612a5c816126d0565b9050919050565b60006020820190508181036000830152612a7c816126f3565b9050919050565b60006020820190508181036000830152612a9c81612716565b9050919050565b60006020820190508181036000830152612abc81612739565b9050919050565b6000602082019050612ad8600083018461275c565b92915050565b6000612ae8612af9565b9050612af48282612d4b565b919050565b6000604051905090565b600067ffffffffffffffff821115612b1e57612b1d612e83565b5b612b2782612eb2565b9050602081019050919050565b600067ffffffffffffffff821115612b4f57612b4e612e83565b5b612b5882612eb2565b9050602081019050919050565b600081519050919050565b600081519050919050565b600082825260208201905092915050565b600082825260208201905092915050565b600081905092915050565b6000612bb382612ccd565b9150612bbe83612ccd565b9250827fffffffffffffffffffffffffffffffffffffffffffffffffffffffffffffffff03821115612bf357612bf2612df6565b5b828201905092915050565b6000612c0982612ccd565b9150612c1483612ccd565b925082612c2457612c23612e25565b5b828204905092915050565b6000612c3a82612ccd565b9150612c4583612ccd565b925082821015612c5857612c57612df6565b5b828203905092915050565b6000612c6e82612cad565b9050919050565b60008115159050919050565b60007fffffffff0000000000000000000000000000000000000000000000000000000082169050919050565b600073ffffffffffffffffffffffffffffffffffffffff82169050919050565b6000819050919050565b82818337600083830152505050565b60005b83811015612d04578082015181840152602081019050612ce9565b83811115612d13576000848401525b50505050565b60006002820490506001821680612d3157607f821691505b60208210811415612d4557612d44612e54565b5b50919050565b612d5482612eb2565b810181811067ffffffffffffffff82111715612d7357612d72612e83565b5b80604052505050565b6000612d8782612ccd565b91507fffffffffffffffffffffffffffffffffffffffffffffffffffffffffffffffff821415612dba57612db9612df6565b5b600182019050919050565b6000612dd082612ccd565b9150612ddb83612ccd565b925082612deb57612dea612e25565b5b828206905092915050565b7f4e487b7100000000000000000000000000000000000000000000000000000000600052601160045260246000fd5b7f4e487b7100000000000000000000000000000000000000000000000000000000600052601260045260246000fd5b7f4e487b7100000000000000000000000000000000000000000000000000000000600052602260045260246000fd5b7f4e487b7100000000000000000000000000000000000000000000000000000000600052604160045260246000fd5b6000601f19601f8301169050919050565b7f4552433732313a207472616e7366657220746f206e6f6e20455243373231526560008201527f63656976657220696d706c656d656e7465720000000000000000000000000000602082015250565b7f4f776e61626c653a206e6577206f776e657220697320746865207a65726f206160008201527f6464726573730000000000000000000000000000000000000000000000000000602082015250565b7f4552433732313a207472616e736665722066726f6d20696e636f72726563742060008201527f6f776e6572000000000000000000000000000000000000000000000000000000602082015250565b7f4552433732313a20746f6b656e20616c7265616479206d696e74656400000000600082015250565b7f4552433732313a207472616e7366657220746f20746865207a65726f2061646460008201527f7265737300000000000000000000000000000000000000000000000000000000602082015250565b7f4552433732313a20617070726f766520746f2063616c6c657200000000000000600082015250565b7f4552433732313a206f70657261746f7220717565727920666f72206e6f6e657860008201527f697374656e7420746f6b656e0000000000000000000000000000000000000000602082015250565b7f4552433732313a20617070726f76652063616c6c6572206973206e6f74206f7760008201527f6e6572206e6f7220617070726f76656420666f7220616c6c0000000000000000602082015250565b7f4552433732313a2062616c616e636520717565727920666f7220746865207a6560008201527f726f206164647265737300000000000000000000000000000000000000000000602082015250565b7f4552433732313a206f776e657220717565727920666f72206e6f6e657869737460008201527f656e7420746f6b656e0000000000000000000000000000000000000000000000602082015250565b7f45524337323155524953746f726167653a2055524920736574206f66206e6f6e60008201527f6578697374656e7420746f6b656e000000000000000000000000000000000000602082015250565b7f4552433732313a206d696e7420746f20746865207a65726f2061646472657373600082015250565b7f45524337323155524953746f726167653a2055524920717565727920666f722060008201527f6e6f6e6578697374656e7420746f6b656e000000000000000000000000000000602082015250565b7f4552433732313a20617070726f76656420717565727920666f72206e6f6e657860008201527f697374656e7420746f6b656e0000000000000000000000000000000000000000602082015250565b7f4f776e61626c653a2063616c6c6572206973206e6f7420746865206f776e6572600082015250565b7f4552433732314d657461646174613a2055524920717565727920666f72206e6f60008201527f6e6578697374656e7420746f6b656e0000000000000000000000000000000000602082015250565b7f4552433732313a20617070726f76616c20746f2063757272656e74206f776e6560008201527f7200000000000000000000000000000000000000000000000000000000000000602082015250565b7f4552433732313a207472616e736665722063616c6c6572206973206e6f74206f60008201527f776e6572206e6f7220617070726f766564000000000000000000000000000000602082015250565b7f4d794e46543a204465736372697074696f6e20736574206f66206e6f6e65786960008201527f7374656e7420746f6b656e000000000000000000000000000000000000000000602082015250565b61341181612c63565b811461341c57600080fd5b50565b61342881612c75565b811461343357600080fd5b50565b61343f81612c81565b811461344a57600080fd5b50565b61345681612ccd565b811461346157600080fd5b5056fea26469706673582212204e4b90e1abc8e9d574ae33fb18eaad90f5c1ec2689afc9c90044e190e76ffa6a64736f6c63430008040033",
  "linkReferences": {},
  "deployedLinkReferences": {}
}